:100000000C9463000C948B000C948B000C944304B0
:100010000C9443040C9443040C948B000C948B00BC
:100020000C948B000C948B000C948B000C948B0024
:100030000C948B000C948B000C948B000C948B0014
:100040000C94F9030C948B000C94C7030C94A1033B
:100050000C948B000C948B000C948B000C948B00F4
:100060000C948B000C948B000000000024002700EF
:100070002A0000000008000201000003040700003D
:1000800000000000000000000000250028002B00F8
:1000900000000000230026002900040404040404D6
:1000A0000404020202020202030303030303010227
:1000B00004081020408001020408102001020408F6
:1000C0001020BD047B0811241FBECFEFD8E0DEBF97
:1000D000CDBF11E0A0E0B1E0E6E4F6E102C005909A
:1000E0000D92AA36B107D9F722E0AAE6B1E001C025
:1000F0001D92A138B207E1F710E0C2E6D0E004C0DB
:100100002197FE010E940B0BC136D107C9F70E944F
:1001100068050C94160B0C940000CF92DF92EF92BE
:10012000FF920F931F93CF93DF936C017A018B01A2
:10013000C0E0D0E0CE15DF0589F0D8016D918D01CA
:10014000D601ED91FC910190F081E02DC601099559
:10015000892B11F47E0102C02196ECCFC701DF91FB
:10016000CF911F910F91FF90EF90DF90CF90089566
:10017000FC01538D448D252F30E0842F90E0821BAD
:10018000930B541710F0CF96089501970895FC0132
:10019000918D828D981761F0828DDF01A80FB11DBE
:1001A0005D968C91928D9F5F9F73928F90E00895E2
:1001B0008FEF9FEF0895FC01918D828D981731F09C
:1001C000828DE80FF11D858D90E008958FEF9FEFF0
:1001D0000895FC01918D228D892F90E0805C9F4FC6
:1001E000821B91098F739927089585EC91E00E94F5
:1001F000E90021E0892B09F420E0822F0895FC0119
:10020000848DDF01A80FB11DA35ABF4F2C91848D9F
:1002100090E001968F739927848FA689B7892C93D4
:10022000A089B1898C9180648C93938D848D98136F
:1002300006C00288F389E02D80818F7D8083089538
:10024000EF92FF920F931F93CF93DF93EC0181E026
:10025000888F9B8D8C8D981305C0E889F9898081E2
:1002600085FD24C0F62E0B8D10E00F5F1F4F0F731E
:100270001127E02E8C8DE8120CC00FB607FCFACFC8
:10028000E889F989808185FFF5CFCE010E94FF00C2
:10029000F1CF8B8DFE01E80FF11DE35AFF4FF08285
:1002A0000B8FEA89FB898081806207C0EE89FF8914
:1002B0006083E889F98980818064808381E090E0AF
:1002C000DF91CF911F910F91FF90EF900895CF9301
:1002D000DF93EC01888D8823C9F0EA89FB8980814E
:1002E00085FD05C0A889B9898C9186FD0FC00FB620
:1002F00007FCF5CF808185FFF2CFA889B9898C9161
:1003000085FFEDCFCE010E94FF00E7CFDF91CF91B7
:10031000089580E090E0892B29F00E94F50081117A
:100320000C9400000895833081F028F4813099F016
:100330008230A1F008958730A9F08830B9F0843078
:10034000D1F4809180008F7D03C0809180008F77F1
:1003500080938000089584B58F7702C084B58F7D27
:1003600084BD08958091B0008F7703C08091B00064
:100370008F7D8093B00008951F93CF93DF93282F34
:1003800030E0F901EE58FF4F8491F901E255FF4F3B
:10039000D491F901E656FF4FC491CC23C9F0162F32
:1003A00081110E949301EC2FF0E0EE0FFF1FEA573E
:1003B000FF4FA591B4918FB7F894111105C09C918E
:1003C000ED2FE095E92302C0EC91ED2BEC938FBF6C
:1003D000DF91CF911F910895CF93DF9390E0FC01BF
:1003E000E255FF4F2491FC01E656FF4F849188238C
:1003F00061F190E0880F991FFC01E859FF4FC5910A
:10040000D491FC01EA57FF4FA591B491611109C045
:100410009FB7F8948881209582238883EC912E23BE
:100420000BC0623061F49FB7F8943881822F8095B9
:1004300083238883EC912E2B2C939FBF06C08FB70C
:10044000F894E8812E2B28838FBFDF91CF910895F8
:100450003FB7F8948091AB019091AC01A091AD01B0
:10046000B091AE0126B5A89B05C02F3F19F00196AB
:10047000A11DB11D3FBFBA2FA92F982F8827820F2A
:10048000911DA11DB11DBC01CD0142E0660F771F7A
:10049000881F991F4A95D1F708958F929F92AF9226
:1004A000BF92CF92DF92EF92FF926B017C010E948C
:1004B00028024B015C01C114D104E104F104F1F004
:1004C0000E942802DC01CB0188199909AA09BB09FD
:1004D000883E9340A105B10570F321E0C21AD1080E
:1004E000E108F10888EE880E83E0981EA11CB11C7B
:1004F000C114D104E104F10419F7DDCFFF90EF90AE
:10050000DF90CF90BF90AF909F908F9008952091F3
:10051000B1013091B2012817390771F49091AF0100
:100520008091B001981741F0E091AF01F0E0E659F9
:10053000FE4F808190E008958FEF9FEF089508951A
:100540001F93CF93DF93DC015C962D913C915D97D7
:100550002115310539F481E090E013969C938E9338
:1005600012973DC05196ED91FC91529750969C91F7
:100570005097892F80951FB75E964C915E9741FBEF
:10058000772770F941FD6095F8944081772311F049
:10059000492B01C048234083E9012197F1F748E046
:1005A000508160FF02C0592B01C058235083E901DC
:1005B0002197F1F76695415099F7772321F09081C3
:1005C0008923808303C08081982B90831FBF5C9612
:1005D0008D919C915D970197F1F721E030E0C90181
:1005E000DF91CF911F9108952091B1013091B20117
:1005F0002817390771F48091B0012091AF0190E084
:10060000805C9F4F821B910960E470E00E94C10AE8
:10061000089580E090E008952091B1013091B201F9
:1006200028173907B9F49091AF018091B00198175C
:1006300089F0E091AF01F0E0E659FE4F8081209112
:10064000AF0130E02F5F3F4F2F7333272093AF016F
:1006500090E008958FEF9FEF0895E091B101F09140
:10066000B201E817F90769F4A389B4899C918589D7
:10067000809589238C931092B2011092B10181E090
:10068000089580E00895089580E090E008950E9424
:10069000110B6115710579F0FB0101900020E9F75C
:1006A0003197AF01461B570BDC01ED91FC910280A5
:1006B000F381E02D099480E090E008958F929F925D
:1006C000AF92BF920F931F93CF93DF93CDB7DEB757
:1006D000A1970FB6F894DEBF0FBECDBF19A242306E
:1006E00008F44AE08E010F5D1F4F842E912CA12C3F
:1006F000B12CA50194010E94D50AE62FB901CA01C7
:1007000001501109EA3014F4E05D01C0E95CD80140
:10071000EC93232B242B252B61F7B80185EC91E07A
:100720000E944903A1960FB6F894DEBF0FBECDBF5D
:10073000DF91CF911F910F91BF90AF909F908F90BD
:1007400008951F920F920FB60F9211242F933F938B
:100750004F935F936F937F938F939F93AF93BF93C9
:10076000EF93FF9385EC91E00E94FF00FF91EF91E2
:10077000BF91AF919F918F917F916F915F914F91B9
:100780003F912F910F900FBE0F901F9018951F92C1
:100790000F920FB60F9211242F938F939F93EF9385
:1007A000FF93E091D501F091D6018081E091DB01CA
:1007B000F091DC0182FD12C090818091DE018F5F9B
:1007C0008F732091DF01821751F0E091DE01F0E09C
:1007D000EB53FE4F958F8093DE0101C08081FF9126
:1007E000EF919F918F912F910F900FBE0F901F90BF
:1007F00018951F920F920FB60F9211242F933F93CB
:100800008F939F93AF93BF938091B3019091B40165
:10081000A091B501B091B6013091AA0123E0230F58
:100820002D3720F40196A11DB11D05C026E8230F28
:100830000296A11DB11D2093AA018093B30190934C
:10084000B401A093B501B093B6018091AB01909132
:10085000AC01A091AD01B091AE010196A11DB11DF9
:100860008093AB019093AC01A093AD01B093AE0126
:10087000BF91AF919F918F913F912F910F900FBE9C
:100880000F901F9018951F920F920FB60F92112480
:100890002F933F934F935F936F937F938F939F9388
:1008A000AF93BF93EF93FF93E091B101F091B20149
:1008B000309709F451C0968DA685B785858591FF3F
:1008C00004C09C91892329F447C09C91892309F095
:1008D00043C0A389B4899C918589809589238C9391
:1008E000868997890197F1F7608D718DA685B78507
:1008F000558538E020E0CB010197F1F7822F90E099
:1009000095958795282F4C91452309F02068315003
:1009100091F7868D81FD20958091B00190E0019640
:100920008F7399273091AF01381749F0A091B0012A
:10093000B0E0A659BE4F2C938093B00103C0868DC2
:100940008160868F828D938D0197F1F7A389B48999
:100950009C918589892B8C93FF91EF91BF91AF91E9
:100960009F918F917F916F915F914F913F912F91C7
:100970000F900FBE0F901F9018951092C801109203
:10098000C70188EE93E0A0E0B0E08093C9019093A6
:10099000CA01A093CB01B093CC0126E031E03093A3
:1009A000C6012093C50125EC30E03093D20120939D
:1009B000D10124EC30E03093D4012093D30120EC1A
:1009C00030E03093D6012093D50121EC30E0309314
:1009D000D8012093D70122EC30E03093DA01209344
:1009E000D90126EC30E03093DC012093DB0110923A
:1009F000DE011092DF011092E0011092E1011092ED
:100A00006502109264028093660290936702A0933D
:100A10006802B093690288E191E090936302809349
:100A20006202109279021092780210927B02109268
:100A30007A0210927D0210927C0210927F02109234
:100A40007E02609180026E7F6D7F6093800266956A
:100A5000617081E0682789E00E94BC0161E089E063
:100A60000E94EC01E7EBF0E0E491E0937202E3EA2C
:100A7000F0E0E491F0E0EE0FFF1FEA57FF4F8591A1
:100A80009491909374028093730260E088E00E94D6
:100A9000EC018091800281FD04C061E088E00E9449
:100AA000BC0188E080936E02E6EBF0E0E491E09315
:100AB0006F02E2EAF0E0E491F0E0EE0FFF1FE05792
:100AC000FF4F8591949190937102809370020895E5
:100AD000789484B5826084BD84B5816084BD85B519
:100AE000826085BD85B5816085BD80916E00816025
:100AF00080936E00109281008091810082608093CB
:100B000081008091810081608093810080918000CC
:100B10008160809380008091B10084608093B100F7
:100B20008091B00081608093B00080917A008460F1
:100B300080937A0080917A00826080937A0080911D
:100B40007A00816080937A0080917A008068809337
:100B50007A001092C100E091D501F091D60182E0B7
:100B60008083E091D101F091D2011082E091D30114
:100B7000F091D40180E180831092DD01E091D901F0
:100B8000F091DA0186E08083E091D701F091D801FD
:100B9000808180618083E091D701F091D8018081CC
:100BA00088608083E091D701F091D80180818068CE
:100BB0008083E091D701F091D80180818F7D80837F
:100BC00061E084E00E94EC0160E083E00E94EC01BF
:100BD00061E082E00E94EC0161E08DE00E94EC01A6
:100BE00060E084E00E94BC0160E082E00E94BC0101
:100BF00010927D0210927C0210927B0210927A0277
:100C000010927902109278028EE393E090937F0223
:100C100080937E0290916E02963108F057C02DE8C5
:100C200031E030937902209378022CE333E0309363
:100C30007B0220937A0224E632E030937D022093F7
:100C40007C0220916800983050F031E09E3008F42A
:100C500030E081E001C0880F3A95EAF701C084E0F6
:100C6000822B80936800983038F09E3040F09631A7
:100C700048F020E030E008C02DE630E005C02BE66B
:100C800030E002C02CE630E030937602209375020B
:100C9000983030F481E001C0880F9A95EAF70EC0D1
:100CA000292F30E09E3018F42850310902C02E5010
:100CB000310981E001C0880F2A95EAF78093770215
:100CC00080917E0290917F020197F1F780917C02E2
:100CD00090917D02892B21F18091B1019091B20117
:100CE00022E082369207E1F0009711F00E942D0376
:100CF000809180028E7F809380021092B0011092CA
:100D0000AF0182E692E09093B2018093B101E0914D
:100D10007502F0917602908180917702892B808311
:100D200066E271E085EC91E00E9449036FE271E0B8
:100D300085EC91E00E94490395E7292E90E0392E39
:100D400001EB10E0CDE9D0E0F1018491F801E490ED
:100D5000FE01F490FF2091F081110E949301EF2D8C
:100D6000F0E0EE0FFF1FE057FF4FA591B4918C917B
:100D7000E82291E080E021F490E002C090E080E081
:100D8000909300018093010182E692E00E94F402B8
:100D9000892BC1F182E692E00E940C037C019093C2
:100DA000C4018093C3016AE070E080E090E00E949B
:100DB0004D026E2D85EC91E00E9420016AE070E00A
:100DC00080E090E00E944D02F1E3EF16F104D1F4CF
:100DD0006AE070E080E090E00E944D0262E371E022
:100DE00082E692E00E94490361E082E00E94BC0139
:100DF00068E873E180E090E00E944D0260E082E0EC
:100E00000E94BC018091000190910101892B09F49D
:100E10006BC161E08DE00E94BC018FB7F894C09077
:100E2000B301D090B401E090B501F090B6018FBF4E
:100E300020E034E060E070E04FB7F8948091B301B7
:100E40009091B401A091B501B091B6014FBF8C193A
:100E50009D09AE09BF0984369105A105B105D8F4F5
:100E600087E480937C0080917A00806480937A008C
:100E700080917A0086FDFCCF8091780040917900C6
:100E800090E0942B681779070CF4BC018217930744
:100E90009CF69C01D1CF621B730B072E000C880BB4
:100EA000990B0E949A0920E030E040EA50E40E9449
:100EB0004F0A20E030E040E85AE30E944F0A609376
:100EC000BF017093C0018093C1019093C20120E0E3
:100ED00030E040E05FE30E944F0A24EF3DEF44E33F
:100EE0005FE30E944F0A6093BB017093BC01809343
:100EF000BD019093BE0120E030E04AE754E40E9437
:100F00004F0A20E030E048EC52E40E94F7086B0101
:100F10007C014B015C016093B7017093B801809331
:100F2000B9019093BA019B01AC010E94BC0A8823CD
:100F300019F063E471E01AC026013701E89477F8EC
:100F40002FEF3FEF4FE75FE7C301B2010E94BC0AFA
:100F5000811111C02FEF3FEF4FE75FE7C301B201EF
:100F60000E94F20818163CF467E471E085EC91E009
:100F70000E94490384C02FEF3FEF4FE75FE4C701B2
:100F8000B6010E944A0A18161CF46BE471E0EECF19
:100F90002FEF3FEF4FE75FECC701B6010E94F20869
:100FA00087FDF3CF20E030E0A901C701B6010E9420
:100FB000F20887FF11C0E091C501F091C6010190D0
:100FC000F081E02D6DE285EC91E009954601570135
:100FD000B7FAB094B7F8B0942AE037ED43EA5BE390
:100FE000C501B4010E9486084B015C010E94690999
:100FF0006B017C010E9498099B01AC01C501B40101
:101000000E9485084B015C014AE0C701B6010E94BD
:101010005E03E091C501F091C6010190F081E02DE1
:101020006EE285EC91E0099520E030E040E251E489
:10103000C501B4010E944F0A4B015C010E9469097D
:101040006B01E12CF12C4AE0C701B6010E945E035E
:10105000C701B6010E9498099B01AC01C501B4010A
:101060000E94850820E030E040E251E40E944F0AEF
:101070000E94690980E090E04AE00E945E036FE40C
:1010800071E085EC91E00E9449036FE271E085EC2C
:1010900091E00E94490320E030E040E85FE3609186
:1010A000B7017091B8018091B9019091BA010E9485
:1010B000F20887FF16C069E571E082E692E00E94BF
:1010C000490360ED77E080E090E00E944D0261E02E
:1010D00082E00E94BC0168E873E180E090E00E9439
:1010E0004D0260E082E002C060E08DE00E94BC0141
:1010F0000E94890129CE88E191E090936302809358
:10110000620282E692E00C942D035058BB27AA2776
:101110000E949D080C94100A0E94020A38F00E9456
:10112000090A20F039F49F3F19F426F40C94FF09C2
:101130000EF4E095E7FB0C94F909E92F0E94210ACF
:1011400058F3BA17620773078407950720F079F4FC
:10115000A6F50C94430A0EF4E0950B2EBA2FA02DA1
:101160000B01B90190010C01CA01A0011124FF2754
:10117000591B99F0593F50F4503E68F11A16F0404F
:10118000A22F232F342F4427585FF3CF469537954E
:101190002795A795F0405395C9F77EF41F16BA0B13
:1011A000620B730B840BBAF09150A1F0FF0FBB1FC1
:1011B000661F771F881FC2F70EC0BA0F621F731F0A
:1011C000841F48F4879577956795B795F7959E3F67
:1011D00008F0B0CF9395880F08F09927EE0F9795F8
:1011E000879508950E94D50908F481E008950E942A
:1011F0000B090C94100A0E94090A58F00E94020A76
:1012000040F029F45F3F29F00C94F90951110C9436
:10121000440A0C94FF090E94210A68F39923B1F350
:10122000552391F3951B550BBB27AA27621773070C
:10123000840738F09F5F5F4F220F331F441FAA1FA0
:10124000A9F335D00E2E3AF0E0E832D0915050405C
:10125000E695001CCAF72BD0FE2F29D0660F771F0A
:10126000881FBB1F261737074807AB07B0E809F0F0
:10127000BB0B802DBF01FF2793585F4F3AF09E3F75
:10128000510578F00C94F9090C94440A5F3FE4F39B
:10129000983ED4F3869577956795B795F7959F5FB8
:1012A000C9F7880F911D9695879597F90895E1E004
:1012B000660F771F881FBB1F621773078407BA0763
:1012C00020F0621B730B840BBA0BEE1F88F7E095BE
:1012D00008950E94290A88F09F5798F0B92F9927FE
:1012E000B751B0F0E1F0660F771F881F991F1AF011
:1012F000BA95C9F714C0B13091F00E94430AB1E029
:1013000008950C94430A672F782F8827B85F39F027
:10131000B93FCCF3869577956795B395D9F73EF4A9
:1013200090958095709561957F4F8F4F9F4F089551
:10133000E89409C097FB3EF490958095709561956F
:101340007F4F8F4F9F4F9923A9F0F92F96E9BB2725
:101350009395F695879577956795B795F111F8CFA1
:10136000FAF4BB0F11F460FF1BC06F5F7F4F8F4F0C
:101370009F4F16C0882311F096E911C0772321F002
:101380009EE8872F762F05C0662371F096E8862F9A
:1013900070E060E02AF09A95660F771F881FDAF7F1
:1013A000880F9695879597F90895990F0008550F1E
:1013B000AA0BE0E8FEEF16161706E807F907C0F0DB
:1013C00012161306E407F50798F0621B730B840BE3
:1013D000950B39F40A2661F0232B242B252B21F4BD
:1013E00008950A2609F4A140A6958FEF811D811D5D
:1013F000089597F99F6780E870E060E008959FEF97
:1014000080EC089500240A9416161706180609069B
:10141000089500240A94121613061406050608956A
:10142000092E0394000C11F4882352F0BB0F40F4F2
:10143000BF2B11F460FF04C06F5F7F4F8F4F9F4F32
:10144000089557FD9058440F551F59F05F3F71F0B4
:101450004795880F97FB991F61F09F3F79F087951B
:101460000895121613061406551FF2CF4695F1DFA4
:1014700008C0161617061806991FF1CF8695710534
:10148000610508940895E894BB2766277727CB0168
:1014900097F908950E94D50908F48FEF08950E94E6
:1014A000620A0C94100A0E94020A38F00E94090A8B
:1014B00020F0952311F00C94F9090C94FF091124E4
:1014C0000C94440A0E94210A70F3959FC1F3950F72
:1014D00050E0551F629FF001729FBB27F00DB11DB8
:1014E000639FAA27F00DB11DAA1F649F6627B00D48
:1014F000A11D661F829F2227B00DA11D621F739F31
:10150000B00DA11D621F839FA00D611D221F749F3E
:101510003327A00D611D231F849F600D211D822F85
:10152000762F6A2F11249F5750409AF0F1F08823AC
:101530004AF0EE0FFF1FBB1F661F771F881F9150D9
:101540005040A9F79E3F510580F00C94F9090C9486
:10155000440A5F3FE4F3983ED4F386957795679508
:10156000B795F795E7959F5FC1F7FE2B880F911D03
:101570009695879597F908950E94D509880B990B40
:10158000089597FB072E16F4009407D077FD09D035
:101590000E94F70A07FC05D03EF4909581959F4F75
:1015A0000895709561957F4F0895A1E21A2EAA1BA8
:1015B000BB1BFD010DC0AA1FBB1FEE1FFF1FA21703
:1015C000B307E407F50720F0A21BB30BE40BF50B00
:1015D000661F771F881F991F1A9469F76095709589
:1015E000809590959B01AC01BD01CF010895AA1B88
:1015F000BB1B51E107C0AA1FBB1FA617B70710F0FE
:10160000A61BB70B881F991F5A95A9F7809590952F
:10161000BC01CD010895EE0FFF1F0590F491E02D60
:10162000099481E090E0F8940C94160B10E0C2E667
:10163000D0E004C0FE010E940B0B2196C336D107F7
:06164000C9F7F894FFCF8A
:1016460001000000000020018D00B8006701E900DC
:10165600C700DB0000000000A0028D0044039F02CB
:10166600F4020C0387025374617274696E67000D8D
:101676000A006F70656E696E675F72656D6F746183
:101686006C79006E616E00696E66006F766600208A
:10169600416D707320524D53006F70656E696E67B1
:0A16A6005F6D616E75616C790000E4
:107800000C94343C0C94513C0C94513C0C94513CE1
:107810000C94513C0C94513C0C94513C0C94513CB4
:107820000C94513C0C94513C0C94513C0C94513CA4
:107830000C94513C0C94513C0C94513C0C94513C94
:107840000C94513C0C94513C0C94513C0C94513C84
:107850000C94513C0C94513C0C94513C0C94513C74
:107860000C94513C0C94513C11241FBECFEFD8E036
:10787000DEBFCDBF11E0A0E0B1E0ECE9FFE702C060
:1078800005900D92A230B107D9F712E0A2E0B1E065
:1078900001C01D92AD30B107E1F70E942D3D0C945F
:1078A000CC3F0C94003C982F959595959595959582
:1078B000905D8F708A307CF0282F295A8091C0000B
:1078C00085FFFCCF9093C6008091C00085FFFCCF60
:1078D0002093C6000895282F205DF0CF982F809127
:1078E000C00085FFFCCF9093C6000895EF92FF92F1
:1078F0000F931F93EE24FF2487018091C00087FD22
:1079000017C00894E11CF11C011D111D81E4E8164B
:1079100082E4F8068FE0080780E0180770F3E09132
:107920000401F091050109958091C00087FFE9CF1E
:107930008091C6001F910F91FF90EF9008950E94D3
:10794000763C982F8091C00085FFFCCF9093C600B5
:1079500091362CF490330CF09053892F089597555D
:10796000892F08951F930E949F3C182F0E949F3CCF
:107970001295107F810F1F9108951F93182F882350
:1079800021F00E94763C1150E1F71F9108951F935A
:10799000182F0E94763C803249F0809103018F5F5E
:1079A000809303018530C1F01F9108958091C0003C
:1079B00085FFFCCF84E18093C6008091C00085FFE5
:1079C000FCCF1093C6008091C00085FFFCCF80E102
:1079D0008093C6001F910895E0910401F091050184
:1079E00009951F9108950E94763C803241F0809164
:1079F00003018F5F80930301853081F008958091AA
:107A0000C00085FFFCCF84E18093C6008091C00058
:107A100085FFFCCF80E18093C6000895E0910401CA
:107A2000F09105010995089540E951E08823A1F0FE
:107A30002D9A28EE33E0FA013197F1F721503040CA
:107A4000D1F72D9828EE33E0FA013197F1F7215064
:107A50003040D1F7815061F708953F924F925F9285
:107A60006F927F928F929F92AF92BF92CF92DF924E
:107A7000EF92FF920F931F93CF93DF93000080E16B
:107A80008093C4001092C50088E18093C10086E015
:107A90008093C2005098589A259A81E00E94143D24
:107AA00024E1F22E9EE1E92E85E9D82E0FE0C02ECA
:107AB00010E1B12EAA24A394B1E49B2EA6E58A2E50
:107AC000F2E57F2EE0E26E2E79E4572E63E5462E36
:107AD00050E5352E0E94763C8033B1F18133B9F107
:107AE000803409F46FC0813409F476C0823409F41B
:107AF00085C0853409F488C0803531F1823521F1A3
:107B0000813511F1853509F485C0863509F48DC0BC
:107B1000843609F496C0843709F403C1853709F423
:107B200072C1863709F466C0809103018F5F80932C
:107B30000301853079F6E0910401F0910501099582
:107B40000E94763C803351F60E94F33CC3CF0E94E2
:107B5000763C803249F78091C00085FFFCCFF092DF
:107B6000C6008091C00085FFFCCF9092C600809136
:107B7000C00085FFFCCF8092C6008091C00085FFC9
:107B8000FCCF7092C6008091C00085FFFCCF609250
:107B9000C6008091C00085FFFCCF5092C600809146
:107BA000C00085FFFCCF4092C6008091C00085FFD9
:107BB000FCCF3092C6008091C00085FFFCCFB09210
:107BC000C60088CF0E94763C863808F4BDCF0E945C
:107BD000763C0E94F33C7ECF0E94763C803809F4CC
:107BE0009CC0813809F40BC1823809F43CC1883942
:107BF00009F48FC080E00E94C73C6CCF84E10E94F2
:107C0000BD3C0E94F33C66CF85E00E94BD3C0E94D3
:107C1000F33C60CF0E94763C809306010E94763C44
:107C2000809307010E94F33C55CF0E94763C80333D
:107C300009F41DC183E00E94BD3C80E00E94C73C66
:107C400049CF0E94763C809309020E94763C809343
:107C5000080280910C028E7F80930C020E94763C79
:107C6000853409F415C18091080290910902892B8D
:107C700089F000E010E00E94763CF801E85FFE4FDA
:107C800080830F5F1F4F80910802909109020817AF
:107C9000190788F30E94763C803209F045CF809125
:107CA0000C0280FF01C16091060170910701660F0F
:107CB000771F7093070160930601A0910802B091AD
:107CC00009021097C9F0E8E0F1E09B01AD014E0F09
:107CD0005F1FF999FECF32BD21BD819180BDFA9A17
:107CE000F99A2F5F3F4FE417F50799F76A0F7B1F4B
:107CF00070930701609306018091C00085FFFCCF5F
:107D0000F092C6008091C00085FFFCCFB092C60003
:107D1000E1CE83E00E94C73CDDCE82E00E94C73CFA
:107D2000D9CE0E94763C809309020E94763C8093D3
:107D300008028091060190910701880F991F909386
:107D40000701809306010E94763C853409F4A6C0A1
:107D500080910C028E7F80930C020E94763C8032D0
:107D600009F0B8CE8091C00085FFFCCFF092C6002C
:107D7000609108027091090261157105B9F140E046
:107D800050E080910C02A82FA170B82FB27011C0E2
:107D9000BB2309F45CC0E0910601F0910701319624
:107DA000F0930701E09306014F5F5F4F46175707B7
:107DB000E8F4AA2369F3F999FECF209106013091E6
:107DC000070132BD21BDF89A90B58091C00085FFB2
:107DD000FCCF9093C6002F5F3F4F30930701209355
:107DE00006014F5F5F4F4617570718F38091C00099
:107DF00085FDE5CE8091C00085FFF8CFE0CE81E023
:107E00000E94C73C67CE0E94763C803209F08CCE3F
:107E10008091C00085FFFCCFF092C6008091C00029
:107E200085FFFCCFE092C6008091C00085FFFCCFAB
:107E3000D092C6008091C00085FFFCCFC092C600E2
:107E40008091C00085FFFCCFB092C60043CEE09188
:107E50000601F091070194918091C00085FFFCCF4D
:107E60009093C6009CCF80E10E94C73C33CE0E9415
:107E7000763C0E94763C182F0E94763C112309F430
:107E800083C0113009F484C08FE00E94C73C22CE29
:107E900080910C02816080930C02E5CE80910C02EF
:107EA000816080930C0259CF809107018823880F4D
:107EB000880B8A2180930B02809106019091070123
:107EC000880F991F90930701809306018091080203
:107ED00080FF09C080910802909109020196909359
:107EE000090280930802F894F999FECF1127E091D6
:107EF0000601F0910701C8E0D1E08091080290915D
:107F00000902103091F40091570001700130D9F34B
:107F100003E000935700E89500915700017001308D
:107F2000D9F301E100935700E89509901990009169
:107F3000570001700130D9F301E000935700E89534
:107F40001395103498F011270091570001700130FB
:107F5000D9F305E000935700E895009157000170B0
:107F60000130D9F301E100935700E895329602976A
:107F700009F0C7CF103011F00296E5CF112480919F
:107F8000C00085FFB9CEBCCE8EE10E94C73CA2CD19
:0C7F900085E90E94C73C9ECDF894FFCF0D
:027F9C00800063
:040000030000780081
:00000001FF
